S0230000506F73746C61625F49616E6E5F4772696A616C76615F32333035352E737265635A
S11300000C9434000C9451000C9451000C94510045
S11300100C9451000C9451000C9451000C94510018
S11300200C9451000C9451000C9451000C94510008
S11300300C9451000C9451000C945C000C945100ED
S11300400C9451000C9451000C9451000C945100E8
S11300500C9451000C9451000C9451000C945100D8
S11300600C9451000C94510011241FBECFEFD8E022
S1130070DEBFCDBF11E0A0E0B1E0ECEBF4E002C0E4
S113008005900D92A031B107D9F721E0A0E1B1E0CC
S113009001C01D92A831B207E1F70E9447010C94F8
S11300A05C020C94000082E084BD93E095BD99EF5E
S11300B097BD80936E0008951F920F920FB60F9212
S11300C011248F939F93EF93FF938BB1807898B112
S11300D09F7C98B990911701911111C0E09116017C
S11300E0EF70F0E0E050FF4F90819F77892B8BB940
S11300F088B1806188B981E08093170110C0E091D4
S11301001601E295EF70F0E0E050FF4F90819F7789
S1130110892B8BB988B1806288B910921701FF913D
S1130120EF919F918F910F900FBE0F901F90189594
S113013084B18C7F84B985B1836085B984B18C63C3
S113014084B987B18F6387B98AB18FEF8AB985B1D2
S1130150837C85B988B1807C88B98BB11BB808953C
S1130160ECE7F0E080E4808380818660808387E828
S113017080937A00089520E040E050E0BA0118C06E
S1130180EAE7F0E090819064908390917A0096FD84
S1130190FCCF8091780090917900480F591F611D20
S11301A0711D8FE891E00197F1F700C000002F5F07
S11301B0283030F3DB01CA01689412F8B695A7958C
S11301C0979587951694D1F7089523B130E002C02E
S11301D0359527958A95E2F720FD02C081E00895C0
S11301E080E0089580FF04C095B1906295B903C082
S11301F095B19F7D95B981FF04C098B1916098B97C
S113020003C098B19E7F98B982FF04C098B19260F0
S113021098B903C098B19D7F98B983FF04C098B181
S1130220946098B903C098B19B7F98B984FF04C0C7
S113023098B1986098B903C098B1977F98B985FF31
S113024004C095B1906195B903C095B19F7E95B9ED
S113025086FF04C095B1986095B903C095B1977FA6
S113026095B9882324F485B1846085B9089585B14E
S11302708B7F85B90895F894861720F48BB1806834
S11302808BB903C08BB18F778BB9789408950E9492
S113029098000E94B0000E945300809115010E94B2
S11302A0F2009091160180911501891720F48BB109
S11302B080688BB903C08BB18F778BB97894D0E009
S11302C0C0E00E94BB0084319105B0F0893E23E078
S11302D09207A8F49C0124513109A6E0B4E00E94DD
S11302E0420224ED33E040E050E00E942002211558
S11302F084E0380738F408C020E030E005C02FEF70
S113030033E002C02FEF33E040911101509112010C
S11303106091130170911401DB01CA01880F991FC8
S1130320AA1FBB1F880F991FAA1FBB1F880F991FE5
S1130330AA1FBB1F841B950BA60BB70B820F931F21
S1130340A11DB11D689412F8B695A7959795879548
S11303501694D1F78093110190931201A093130185
S1130360B09314012D3F334060F08FEF93E0A0E091
S1130370B0E08093110190931201A0931301B09304
S113038014012091110130911201409113015091F7
S11303901401AFEFB0E00E9451022FEF33E040E0D0
S11303A050E00E94200280911601821791F0809102
S11303B010018F5F80931001833068F02093160141
S11303C01092100160911601809115010E943B0169
S11303D002C01092100180E00E94E500882389F099
S11303E0C11110C0809115018F5F809315010E9487
S11303F0F20060911601809115010E943B01C1E059
S113040001C0C0E081E00E94E500882389F0D11199
S113041010C0809115018150809315010E94F20053
S113042060911601809115010E943B01D1E001C049
S1130430D0E08FE39CE90197F1F700C0000041CFC1
S1130440A1E21A2EAA1BBB1BFD010DC0AA1FBB1FD4
S1130450EE1FFF1FA217B307E407F50720F0A21B46
S1130460B30BE40BF50B661F771F881F991F1A94B3
S113047069F760957095809590959B01AC01BD01DD
S1130480CF010895A29FB001B39FC001A39F700D37
S1130490811D1124911DB29F700D811D1124911D88
S11304A008950E944202A59F900DB49F900DA49FB1
S10F04B0800D911D11240895F894FFCFD5
S11304BC3F065B4F666D7D077F6F777C395E797184
S9030000FC
